:020000040800F2
:100000000040002001040008530700084F080008C2
:1000100053070008530700085307000800000000BA
:10002000000000000000000000000000530700086E
:10003000530700080000000053070008530700089A
:100040005307000853070008530700085307000828
:100050005307000853070008530700085307000818
:100060005307000853070008530700085307000808
:1000700053070008530700085307000853070008F8
:1004000000F0A9F9084809490022814201D004C03E
:10041000FBE707480749084A814202D008CA08C0DA
:10042000FAE700F02CF900DE0000002004000020B4
:1004300000000020000000206409000880B56F461D
:1004400000F09AF880BD40F20001C2F200010120E4
:100450000870704780B56F4688B000900191079092
:100460004EF21400CEF20000029003910490059128
:10047000069000F05AF908B080BD80B56F4686B08E
:10048000019005904EF21000CEF200000290039011
:10049000049000F043F9C0F3004006B080BD80B581
:1004A0006F4688B0019007904EF21800CEF200001F
:1004B00002900021039104900591069000F035F917
:1004C00008B080BD80B56F468AB0019009904EF2A9
:1004D0001000CEF20000009003900490059000F010
:1004E0001DF90290029800F026F901460098069046
:1004F0000791089000F019F90AB080BD80B56F46E9
:1005000096B0039007F8451C059017F8450CC007F6
:10051000C0B9FFE7039815904EF21000CEF200002C
:10052000029007900C900D9000F0F8F80690069855
:1005300000F099F80146029811901291139000F082
:10054000F4F817E0039814904EF21000CEF2000079
:10055000019009900A900B9000F0E0F8089008983C
:1005600000F087F8014601980E900F91109000F06E
:10057000DCF8FFE716B080BD80B56F4684B000F0B0
:100580004FF8009007F8020C00F038F800F0E0F89F
:1005900003A80290029800F012F8014600980A465B
:1005A000019207F8011C00F050F828B9FFE7019804
:1005B00000F0010004B080BD00F01BF8F7E780B543
:1005C0006F4682B0019040F20000C2F20000007855
:1005D000C00730B9FFE7FFF736FF012007F8060C28
:1005E00003E0002007F8060CFFE717F8060C02B03E
:1005F00080BD80B56F4600F0A6F880BD80B56F461F
:1006000000F09FF880BD84B00090019100780290C6
:1006100009780391401AB0FA80F0400904B070479D
:1006200080B56F4682B000F090F80190C00720B905
:10063000FFE7002007F8050C03E0012007F8050C90
:10064000FFE717F8050C02B080BD80B56F4682B099
:1006500007F8010C40F67001C0F60001781EFFF7A4
:10066000D2FF02B080BD82B0019040F0040002B021
:10067000704782B0019020F0040002B0704780B54E
:100680006F4600F000F880B56F4688B04FF05530E7
:100690000390FFF7D3FE40F67C01C0F6000100F0A6
:1006A00028F8002007F80D0C17F80D1CA7F10E0014
:1006B0000190FFF723FF01984FF47A71FFF7CAFE0C
:1006C0000198FFF7ECFE0198FFF7FCFEFFE7A7F1AA
:1006D0000E00FFF7D2FE0028F9D0FFE71821C4F67C
:1006E0000001059106914FF0553007900860FFE733
:1006F000FEE780B56F4682B0009107F8020C17F84C
:10070000020CC00740B9FFE7009A40F68C00C0F623
:1007100000002B2100F085F802B080BD82B000906F
:1007200000680190019802B0704782B0009001917A
:10073000016002B0704782B0019040F0010002B049
:10074000704772B6704762B67047EFF3108070471B
:100750007047FFE7FEE7704780B56F468CB007F83B
:10076000290C17F8290C00900099DFE801F004200B
:1007700021222300FEDE40F6EC02C0F600020A92BF
:1007800001210B910020089002920391089A099987
:100790000692079140F6F401C0F60001049105901D
:1007A00040F64411C0F6000102A800F025F802E06E
:1007B00001E000E0FFE70CB080BD80B56F4682B07D
:1007C0000190FFE7042007F8050C17F8050CFFF768
:1007D000C3FFF7E770474CF6182043F29C1146F62A
:1007E000482244F27C13CCF6E940CEF63E71C4F2C6
:1007F000D952CBF69D63704780B56F4686B0CDE980
:10080000030140F65410C0F600000122029040F6A9
:100810005410C0F60000ADF81420019001A8FFF7B5
:10082000CCFF80B56F4688B094460122019206AA9B
:10083000009240F654120023CDE90601C0F60002F2
:1008400068466146049303930292FFF7D5FF704612
:100850000421084203D1EFF3088000F004B8EFF35D
:10086000098000F000B881B00090FFE7FEE70000CB
:10087000007372632F6D61696E2E727371080008C8
:100880000B0000000B0000002B00000063616C6C8B
:10089000656420604F7074696F6E3A3A756E777256
:1008A0006170282960206F6E206120604E6F6E6538
:1008B000602076616C756574686572652069732067
:1008C0006E6F2073756368207468696E672061734A
:1008D00020612072656C6178656420636F6D70695A
:1008E0006C65722066656E6365000000B7080008DD
:1008F000320000002F72757374632F3037646361A8
:10090000343839616332643933336337386433637D
:100910003531353865336634336265656665623016
:100920003263652F6C6962726172792F636F7265D1
:100930002F7372632F73796E632F61746F6D6963A8
:100940002E727300F40800084F000000860E0000AD
:1009500018000000D507000800000000010000009A
:04096000D7070008AD
:0400000508000401EA
:00000001FF
